:1000000026C035C0A5C133C032C058C130C02FC0D2
:100010002EC02DC02CC02BC02AC029C028C0000073
:10002000000037000000000038000000000036002B
:10003000020202020202020202020102040810206D
:100040002004100801020000040000000000112438
:100050001FBECFE5D2E0DEBFCDBF20E0A0E6B0E01E
:1000600001C01D92AA36B207E1F783D119C2C8CFE9
:10007000823089F018F4813051F00895833019F0FE
:10008000843009F008958CB58F7D8CBD08958AB5B4
:100090008F778ABD08958AB58F7DFBCFCF93DF938D
:1000A000E4E4F0E08491EAE3F0E0D491E0E3F0E00E
:1000B000C491CC2399F08111DBDFEC2FF0E0EE0F3F
:1000C000FF1FE65DFF4FA591B491EC91ED2381E018
:1000D00090E009F480E0DF91CF91089580E090E016
:1000E000FACF1F93CF93DF93282F30E0F901EC5B19
:1000F000FF4F8491F901E65CFF4FD491F901E05D77
:10010000FF4FC491CC23A1F0162F8111B1DFEC2F4A
:10011000F0E0EE0FFF1FEC5DFF4FA591B4918FB79C
:10012000F894EC91111108C0D095DE23DC938FBFB9
:10013000DF91CF911F910895DE2BF8CFCF93DF93FE
:1001400090E0FC01E65CFF4F2491805D9F4FFC0135
:1001500084918823D1F090E0880F991FFC01E25E22
:10016000FF4FA591B491FC01EC5DFF4FC591D49177
:10017000623071F49FB7F8943C91822F809583236D
:100180008C93E8812E2B28839FBFDF91CF91089518
:100190008FB7F894EC912E2B2C938FBFF6CF3FB7EF
:1001A000F8948091620090916300A0916400B091F6
:1001B000650022B708B601FE05C02F3F19F0019671
:1001C000A11DB11D3FBFBA2FA92F982F8827BC01B1
:1001D000CD01620F711D811D911D43E0660F771FD8
:1001E000881F991F4A95D1F708958F929F92AF92D9
:1001F000BF92CF92DF92EF92FF924B015C01CFDF73
:100200006B017C01CCDF6C197D098E099F09683E6A
:10021000734081059105B0F321E0821A9108A1088D
:10022000B10888EEC80E83E0D81EE11CF11C8114D1
:100230009104A104B10431F7FF90EF90DF90CF90CB
:10024000BF90AF909F908F900895CF92DF92EF92E2
:10025000FF928FB7F894C0906600D0906700E0904E
:100260006800F09069008FBF19DF892BD1F42FB798
:10027000F8948091660090916700A0916800B09119
:1002800069002FBF8C199D09AE09BF098035910502
:10029000A105B10588F462E070E080E090E0A5DFA0
:1002A000E3CF64E070E080E090E09FDF81E0FF90CA
:1002B000EF90DF90CF90089580E0F9CF1F920F92DA
:1002C0000FB60F9211242F933F938F939F93AF9369
:1002D000BF938091660090916700A0916800B091F3
:1002E00069003091610026E0230F2D3758F5029602
:1002F000A11DB11D2093610080936600909367005B
:10030000A0936800B09369008091620090916300AF
:10031000A0916400B09165000196A11DB11D80936C
:10032000620090936300A0936400B0936500BF9156
:10033000AF919F918F913F912F910F900FBE0F9092
:100340001F90189529E8230F0396A11DB11DD2CF48
:100350001F920F920FB60F9211248F93B09903C082
:1003600081E0809360008F910F900FBE0F901F90DF
:10037000189578948AB582608ABD8AB581608ABDF5
:1003800083B7826083BF83B7816083BF89B7826090
:1003900089BF80B7826080BF80B7816080BF329A9A
:1003A000319A3098379A8CB580648CBD62E080E0D9
:1003B000C5DE61E081E0C2DE61E081E0BFDE60E0D9
:1003C00081E08FDE60E081E08CDE61E082E0B6DE1D
:1003D00061E083E0B3DE61E084E0B0DE60E082E013
:1003E00080DE60E083E07DDE60E084E07ADE3798E6
:1003F000479A80B5816080BD11E0C0E0D0E025DF84
:10040000109260008BB78F7D8BBF15BB8AB780625F
:100410008ABF85B7877E806185BFF89485B7806283
:1004200085BF8BB780628BBF85B7846885BF8B7FA4
:1004300085BF7894889585B78F7D85BF8BB78F7D75
:100440008BBF62E070E080E090E0CFDE27DE892B9A
:1004500011F561E081E045DE61E081E042DE60E5CA
:1004600070E080E090E0C1DE60E081E03ADE60E0D4
:1004700081E037DE8FB7F8944091660050916700B5
:1004800060916800709169008FBF68E770E080E05C
:1004900090E0ABDEDADE209709F4B1CFB1DDAFCF6B
:0404A000F894FFCFFE
:00000001FF
