:020000040000FA
:100000000C9462000C948A000C948A000C948A0070
:100010000C948A000C948A000C948A000C948A0038
:100020000C948A000C948A000C948A000C948A0028
:100030000C948A000C948A000C948A000C948A0018
:100040000C9477020C948A000C94E7020C94C10281
:100050000C948A000C948A000C948A000C948A00F8
:100060000C948A000C948A000000000024002700F1
:100070002A0000000000250028002B0000000000DE
:1000800023002600290004040404040404040202DA
:100090000202020203030303030301020408102007
:1000A0004080010204081020010204081020000012
:1000B0000008000201000003040700000000000027
:1000C0000000A40411241FBECFEFD8E0DEBFCDBFD7
:1000D00011E0A0E0B1E0E6EFF9E002C005900D927A
:1000E000AA34B107D9F721E0AAE4B1E001C01D921A
:1000F000AA3FB207E1F710E0C2E6D0E004C02197C2
:10010000FE010E94F304C136D107C9F70E9419030A
:100110000C94F9040C940000833081F028F48130B1
:1001200099F08230A9F008958730A9F08830C9F09D
:100130008430B1F4809180008F7D03C08091800075
:100140008F7780938000089584B58F7784BD08955C
:1001500084B58F7DFBCF8091B0008F778093B00006
:1001600008958091B0008F7DF9CFCF93DF93E0EBBE
:10017000F0E08491ECE9F0E0D491E8E8F0E0C4919B
:10018000CC23A1F081110E948C00EC2FF0E0EE0F47
:10019000FF1FE458FF4FA591B491EC91ED2381E04E
:1001A00090E009F480E0DF91CF91089580E090E045
:1001B000FACF1F93CF93DF93282F30E0F901E25558
:1001C000FF4F8491F901E656FF4FD491F901EA57A8
:1001D000FF4FC491CC23A9F0162F81110E948C00EF
:1001E000EC2FF0E0EE0FFF1FEE58FF4FA591B491FA
:1001F0008FB7F894EC91111108C0D095DE23DC93F1
:100200008FBFDF91CF911F910895DE2BF8CFCF9351
:10021000DF9390E0FC01E656FF4F24918A579F4FF1
:10022000FC0184918823D1F090E0880F991FFC0194
:10023000E859FF4FA591B491FC01EE58FF4FC591CD
:10024000D491623071F49FB7F8943C91822F8095DD
:1002500083238C93E8812E2B28839FBFDF91CF913E
:1002600008958FB7F894EC912E2B2C938FBFF6CF77
:100270003FB7F8948091590190915A01A0915B0188
:10028000B0915C0126B5A89B05C02F3F19F00196DF
:10029000A11DB11D3FBFBA2FA92F982F8827BC01E0
:1002A000CD01620F711D811D911D42E0660F771F08
:1002B000881F991F4A95D1F70895AF92BF92CF92A8
:1002C000DF92EF92FF920F931F93CF93DF936C0116
:1002D0007B018B01040F151FEB015E01AE18BF08F7
:1002E000C017D10759F06991D601ED91FC910190A9
:1002F000F081E02DC6010995892B79F7C501DF91C1
:10030000CF911F910F91FF90EF90DF90CF90BF9012
:10031000AF900895FC01538D448D252F30E0842F3C
:1003200090E0821B930B541710F0CF96089501971D
:100330000895FC01918D828D981761F0A28DAE0F0A
:10034000BF2FB11D5D968C91928D9F5F9F73928F91
:1003500090E008958FEF9FEF0895FC01918D828DBD
:10036000981731F0828DE80FF11D858D90E008958A
:100370008FEF9FEF0895FC01918D228D892F90E0E2
:10038000805C9F4F821B91098F73992708958DE59B
:1003900091E00E94BB0121E0892B09F420E0822F2B
:1003A000089580E090E0892B29F00E94C701811117
:1003B0000C9400000895FC01A48DA80FB92FB11D65
:1003C000A35ABF4F2C91848D90E001968F7399278B
:1003D000848FA689B7892C93A089B1898C91837069
:1003E00080648C93938D848D981306C00288F38962
:1003F000E02D80818F7D80830895EF92FF920F938F
:100400001F93CF93DF93EC0181E0888F9B8D8C8DC0
:1004100098131AC0E889F989808185FF15C09FB7B4
:10042000F894EE89FF896083E889F9898081837077
:10043000806480839FBF81E090E0DF91CF911F9126
:100440000F91FF90EF900895F62E0B8D10E00F5F47
:100450001F4F0F731127E02E8C8D8E110CC00FB61D
:1004600007FCFACFE889F989808185FFF5CFCE01B5
:100470000E94DB01F1CFEB8DEC0FFD2FF11DE35A54
:10048000FF4FF0829FB7F8940B8FEA89FB89808138
:100490008062CFCFCF93DF93EC01888D8823B9F0B2
:1004A000AA89BB89E889F9898C9185FD03C080817F
:1004B00086FD0DC00FB607FCF7CF8C9185FFF2CFFC
:1004C000808185FFEDCFCE010E94DB01E9CFDF9176
:1004D000CF910895FC0101900020E9F73197AF0119
:1004E000481B590BBC018DE591E00C945D011F92F6
:1004F0000F920FB60F9211242F933F938F939F93D8
:10050000AF93BF938091550190915601A0915701EF
:10051000B09158013091540123E0230F2D3758F545
:100520000196A11DB11D2093540180935501909314
:100530005601A0935701B0935801809159019091B1
:100540005A01A0915B01B0915C010196A11DB11D02
:100550008093590190935A01A0935B01B0935C0181
:10056000BF91AF919F918F913F912F910F900FBEAF
:100570000F901F90189526E8230F0296A11DB11D1C
:10058000D2CF1F920F920FB60F9211242F933F9349
:100590004F935F936F937F938F939F93AF93BF938B
:1005A000EF93FF938DE591E00E94DB01FF91EF91C6
:1005B000BF91AF919F918F917F916F915F914F917B
:1005C0003F912F910F900FBE0F901F9018951F9283
:1005D0000F920FB60F9211242F938F939F93EF9347
:1005E000FF93E0916D01F0916E018081E0917301C4
:1005F000F091740182FD1BC09081809176018F5F24
:100600008F7320917701821741F0E0917601F0E03D
:10061000E35AFE4F958F80937601FF91EF919F9162
:100620008F912F910F900FBE0F901F901895808182
:10063000F4CFCF93DF93CDB7DEB7A1970FB6F89481
:10064000DEBF0FBECDBF789484B5826084BD84B513
:10065000816084BD85B5826085BD85B5816085BDBD
:1006600080916E00816080936E0010928100809175
:1006700081008260809381008091810081608093FD
:100680008100809180008160809380008091B10022
:1006900084608093B1008091B00081608093B0004D
:1006A00080917A00846080937A0080917A008260E1
:1006B00080937A0080917A00816080937A008091A3
:1006C0007A00806880937A001092C10062E082E034
:1006D0000E94070161E089E00E94070161E08DE06E
:1006E0000E94070160E089E00E94D90060E08DE08F
:1006F0000E94D900E0916D01F0916E0182E080834B
:10070000E0916901F0916A011082E0916B01F09132
:100710006C018FEC808310927501E0917101F09172
:10072000720186E08083E0916F01F0917001808119
:1007300080618083E0916F01F09170018081886019
:100740008083E0916F01F0917001808180688083E7
:10075000E0916F01F091700180818F7D808384E151
:1007600091E00E946A028DE391E00E946A029AE0A1
:10077000892E912CA12CB12C00E010E08FB7F894B9
:10078000C0905501D0905601E0905701F09058016B
:100790008FBF8091500190915101A0915201B09171
:1007A0005301A7019601281B390B4A0B5B0BDA0199
:1007B000C9018C329140A105B10580F40E94B500B9
:1007C000909301018093000101151105B9F20E9477
:1007D000C701882399F20E940000D0CF0E94B50083
:1007E000209100013091010121303105B9F40097C9
:1007F000A9F420914E0130914F012115310541F4AA
:10080000C0924A01D0924B01E0924C01F0924D010E
:100810002F5F3F4F30934F0120934E019093010182
:100820008093000180914E0190914F011816190696
:100830005CF680914A0190914B01A0914C01B091DE
:100840004D01C81AD90AEA0AFB0A4FE0C416D104BE
:10085000E104F10408F4B8CF80E491E00E946A0258
:100860008FB7F8942091550130915601409157016E
:10087000509158018FBF19A27E0181E2E80EF11C50
:10088000CA01B901A50194010E94D104605DF7017C
:1008900062937F01211531054105510589F7309794
:1008A00019F0CF010E946A028DE391E00E946A0272
:1008B00061E089E00E94D90061E08DE00E94D900EA
:1008C0000E9438016B017C0180E5482E512C612C7F
:1008D000712C0E9438016C197D098E099F09683EB0
:1008E000734081059105A8F3F1E04F1A51086108A2
:1008F000710828EEC20E23E0D21EE11CF11C411447
:1009000051046104710429F760E089E00E94D90074
:1009100060E08DE00E94D9002FB7F89480915501D6
:1009200090915601A0915701B09158012FBF80932B
:10093000500190935101A0935201B0935301109232
:100940004F0110924E0140CFEDE5F1E0138212828B
:1009500088EE93E0A0E0B0E084839583A683B7831C
:1009600086E091E09183808385EC90E09587848791
:1009700084EC90E09787868780EC90E0918B808B69
:1009800081EC90E0938B828B82EC90E0958B848B52
:1009900086EC90E0978B868B118E128E138E148EC0
:1009A0000895A1E21A2EAA1BBB1BFD010DC0AA1FB0
:1009B000BB1FEE1FFF1FA217B307E407F50720F0C8
:1009C000A21BB30BE40BF50B661F771F881F991F43
:1009D0001A9469F760957095809590959B01AC018C
:1009E000BD01CF010895EE0FFF1F0590F491E02D9A
:1009F0000994F894FFCF010000000000FD015D01A3
:100A00008A014A02BB019901AD014C6173657220F4
:100A1000436172747269646765205245414459208C
:100A200028766962726174696F6E2073656E736F88
:100A30007229000D0A0053484F542120743D0000D4
:107E0000112484B714BE81FFF0D085E080938100F7
:107E100082E08093C00088E18093C10086E0809377
:107E2000C20080E18093C4008EE0C9D0259A86E02C
:107E300020E33CEF91E0309385002093840096BBD3
:107E4000B09BFECF1D9AA8958150A9F7CC24DD24C4
:107E500088248394B5E0AB2EA1E19A2EF3E0BF2EE7
:107E6000A2D0813461F49FD0082FAFD0023811F036
:107E7000013811F484E001C083E08DD089C08234E0
:107E800011F484E103C0853419F485E0A6D080C0E4
:107E9000853579F488D0E82EFF2485D0082F10E0AE
:107EA000102F00270E291F29000F111F8ED06801E7
:107EB0006FC0863521F484E090D080E0DECF843638
:107EC00009F040C070D06FD0082F6DD080E0C81688
:107ED00080E7D80618F4F601B7BEE895C0E0D1E017
:107EE00062D089930C17E1F7F0E0CF16F0E7DF06D8
:107EF00018F0F601B7BEE89568D007B600FCFDCFD4
:107F0000A601A0E0B1E02C9130E011968C91119780
:107F100090E0982F8827822B932B1296FA010C0160
:107F200087BEE89511244E5F5F4FF1E0A038BF0790
:107F300051F7F601A7BEE89507B600FCFDCF97BE46
:107F4000E89526C08437B1F42ED02DD0F82E2BD052
:107F50003CD0F601EF2C8F010F5F1F4F84911BD097
:107F6000EA94F801C1F70894C11CD11CFA94CF0C13
:107F7000D11C0EC0853739F428D08EE10CD085E9AC
:107F80000AD08FE07ACF813511F488E018D01DD067
:107F900080E101D065CF982F8091C00085FFFCCF94
:107FA0009093C60008958091C00087FFFCCF809118
:107FB000C00084FD01C0A8958091C6000895E0E648
:107FC000F0E098E1908380830895EDDF803219F02E
:107FD00088E0F5DFFFCF84E1DECF1F93182FE3DFCA
:107FE0001150E9F7F2DF1F91089580E0E8DFEE27F6
:047FF000FF270994CA
:027FFE00040479
:00000001FF
